{
	"for-loops.sol": {
		"loopContract": {
			"abi": [
				{
					"inputs": [
						{
							"internalType": "uint256",
							"name": "_num",
							"type": "uint256"
						},
						{
							"internalType": "uint256",
							"name": "_nums",
							"type": "uint256"
						}
					],
					"name": "checkMultipleValidity",
					"outputs": [
						{
							"internalType": "bool",
							"name": "",
							"type": "bool"
						}
					],
					"stateMutability": "view",
					"type": "function"
				},
				{
					"inputs": [
						{
							"internalType": "uint256",
							"name": "_number",
							"type": "uint256"
						}
					],
					"name": "geMultiples",
					"outputs": [
						{
							"internalType": "uint256",
							"name": "",
							"type": "uint256"
						}
					],
					"stateMutability": "view",
					"type": "function"
				},
				{
					"inputs": [
						{
							"internalType": "uint256",
							"name": "",
							"type": "uint256"
						}
					],
					"name": "numbersList",
					"outputs": [
						{
							"internalType": "uint256",
							"name": "",
							"type": "uint256"
						}
					],
					"stateMutability": "view",
					"type": "function"
				}
			],
			"devdoc": {
				"kind": "dev",
				"methods": {},
				"version": 1
			},
			"evm": {
				"assembly": "    /* \"for-loops.sol\":319:1750  contract loopContract {... */\n  mstore(0x40, 0x80)\n    /* \"for-loops.sol\":392:454  uint256[] public numbersList = [1, 2, 3, 4, 5, 6, 7, 8, 9, 10] */\n  mload(0x40)\n  dup1\n  0x0140\n  add\n  0x40\n  mstore\n  dup1\n    /* \"for-loops.sol\":424:425  1 */\n  0x01\n    /* \"for-loops.sol\":392:454  uint256[] public numbersList = [1, 2, 3, 4, 5, 6, 7, 8, 9, 10] */\n  0xff\n  and\n  dup2\n  mstore\n  0x20\n  add\n    /* \"for-loops.sol\":427:428  2 */\n  0x02\n    /* \"for-loops.sol\":392:454  uint256[] public numbersList = [1, 2, 3, 4, 5, 6, 7, 8, 9, 10] */\n  0xff\n  and\n  dup2\n  mstore\n  0x20\n  add\n    /* \"for-loops.sol\":430:431  3 */\n  0x03\n    /* \"for-loops.sol\":392:454  uint256[] public numbersList = [1, 2, 3, 4, 5, 6, 7, 8, 9, 10] */\n  0xff\n  and\n  dup2\n  mstore\n  0x20\n  add\n    /* \"for-loops.sol\":433:434  4 */\n  0x04\n    /* \"for-loops.sol\":392:454  uint256[] public numbersList = [1, 2, 3, 4, 5, 6, 7, 8, 9, 10] */\n  0xff\n  and\n  dup2\n  mstore\n  0x20\n  add\n    /* \"for-loops.sol\":436:437  5 */\n  0x05\n    /* \"for-loops.sol\":392:454  uint256[] public numbersList = [1, 2, 3, 4, 5, 6, 7, 8, 9, 10] */\n  0xff\n  and\n  dup2\n  mstore\n  0x20\n  add\n    /* \"for-loops.sol\":439:440  6 */\n  0x06\n    /* \"for-loops.sol\":392:454  uint256[] public numbersList = [1, 2, 3, 4, 5, 6, 7, 8, 9, 10] */\n  0xff\n  and\n  dup2\n  mstore\n  0x20\n  add\n    /* \"for-loops.sol\":442:443  7 */\n  0x07\n    /* \"for-loops.sol\":392:454  uint256[] public numbersList = [1, 2, 3, 4, 5, 6, 7, 8, 9, 10] */\n  0xff\n  and\n  dup2\n  mstore\n  0x20\n  add\n    /* \"for-loops.sol\":445:446  8 */\n  0x08\n    /* \"for-loops.sol\":392:454  uint256[] public numbersList = [1, 2, 3, 4, 5, 6, 7, 8, 9, 10] */\n  0xff\n  and\n  dup2\n  mstore\n  0x20\n  add\n    /* \"for-loops.sol\":448:449  9 */\n  0x09\n    /* \"for-loops.sol\":392:454  uint256[] public numbersList = [1, 2, 3, 4, 5, 6, 7, 8, 9, 10] */\n  0xff\n  and\n  dup2\n  mstore\n  0x20\n  add\n    /* \"for-loops.sol\":451:453  10 */\n  0x0a\n    /* \"for-loops.sol\":392:454  uint256[] public numbersList = [1, 2, 3, 4, 5, 6, 7, 8, 9, 10] */\n  0xff\n  and\n  dup2\n  mstore\n  pop\n  0x00\n  swap1\n  0x0a\n  tag_1\n  swap3\n  swap2\n  swap1\n  tag_2\n  jump\t// in\ntag_1:\n  pop\n    /* \"for-loops.sol\":319:1750  contract loopContract {... */\n  callvalue\n  dup1\n  iszero\n  tag_3\n  jumpi\n  0x00\n  dup1\n  revert\ntag_3:\n  pop\n  jump(tag_4)\ntag_2:\n  dup3\n  dup1\n  sload\n  dup3\n  dup3\n  sstore\n  swap1\n  0x00\n  mstore\n  keccak256(0x00, 0x20)\n  swap1\n  dup2\n  add\n  swap3\n  dup3\n  iszero\n  tag_5\n  jumpi\n  swap2\n  0x20\n  mul\n  dup3\n  add\ntag_6:\n  dup3\n  dup2\n  gt\n  iszero\n  tag_7\n  jumpi\n  dup3\n  mload\n  dup3\n  swap1\n  0xff\n  and\n  swap1\n  sstore\n  swap2\n  0x20\n  add\n  swap2\n  swap1\n  0x01\n  add\n  swap1\n  jump(tag_6)\ntag_7:\ntag_5:\n  pop\n  swap1\n  pop\n  tag_8\n  swap2\n  swap1\n  tag_9\n  jump\t// in\ntag_8:\n  pop\n  swap1\n  jump\t// out\ntag_9:\ntag_10:\n  dup1\n  dup3\n  gt\n  iszero\n  tag_11\n  jumpi\n  0x00\n  dup2\n  0x00\n  swap1\n  sstore\n  pop\n  0x01\n  add\n  jump(tag_10)\ntag_11:\n  pop\n  swap1\n  jump\t// out\ntag_4:\n  dataSize(sub_0)\n  dup1\n  dataOffset(sub_0)\n  0x00\n  codecopy\n  0x00\n  return\nstop\n\nsub_0: assembly {\n        /* \"for-loops.sol\":319:1750  contract loopContract {... */\n      mstore(0x40, 0x80)\n      callvalue\n      dup1\n      iszero\n      tag_1\n      jumpi\n      0x00\n      dup1\n      revert\n    tag_1:\n      pop\n      jumpi(tag_2, lt(calldatasize, 0x04))\n      shr(0xe0, calldataload(0x00))\n      dup1\n      0x16985d15\n      eq\n      tag_3\n      jumpi\n      dup1\n      0x48f6bcfe\n      eq\n      tag_4\n      jumpi\n      dup1\n      0x82343a1e\n      eq\n      tag_5\n      jumpi\n    tag_2:\n      0x00\n      dup1\n      revert\n        /* \"for-loops.sol\":1325:1748  function checkMultipleValidity(uint256 _num, uint256 _nums)... */\n    tag_3:\n      tag_6\n      0x04\n      dup1\n      calldatasize\n      sub\n      dup2\n      add\n      swap1\n      tag_7\n      swap2\n      swap1\n      tag_8\n      jump\t// in\n    tag_7:\n      tag_9\n      jump\t// in\n    tag_6:\n      mload(0x40)\n      tag_10\n      swap2\n      swap1\n      tag_11\n      jump\t// in\n    tag_10:\n      mload(0x40)\n      dup1\n      swap2\n      sub\n      swap1\n      return\n        /* \"for-loops.sol\":619:1129  function geMultiples(uint256 _number) public view returns (uint256) {... */\n    tag_4:\n      tag_12\n      0x04\n      dup1\n      calldatasize\n      sub\n      dup2\n      add\n      swap1\n      tag_13\n      swap2\n      swap1\n      tag_14\n      jump\t// in\n    tag_13:\n      tag_15\n      jump\t// in\n    tag_12:\n      mload(0x40)\n      tag_16\n      swap2\n      swap1\n      tag_17\n      jump\t// in\n    tag_16:\n      mload(0x40)\n      dup1\n      swap2\n      sub\n      swap1\n      return\n        /* \"for-loops.sol\":392:454  uint256[] public numbersList = [1, 2, 3, 4, 5, 6, 7, 8, 9, 10] */\n    tag_5:\n      tag_18\n      0x04\n      dup1\n      calldatasize\n      sub\n      dup2\n      add\n      swap1\n      tag_19\n      swap2\n      swap1\n      tag_14\n      jump\t// in\n    tag_19:\n      tag_20\n      jump\t// in\n    tag_18:\n      mload(0x40)\n      tag_21\n      swap2\n      swap1\n      tag_17\n      jump\t// in\n    tag_21:\n      mload(0x40)\n      dup1\n      swap2\n      sub\n      swap1\n      return\n        /* \"for-loops.sol\":1325:1748  function checkMultipleValidity(uint256 _num, uint256 _nums)... */\n    tag_9:\n        /* \"for-loops.sol\":1430:1434  bool */\n      0x00\n        /* \"for-loops.sol\":1660:1661  0 */\n      dup1\n        /* \"for-loops.sol\":1651:1656  _nums */\n      dup3\n        /* \"for-loops.sol\":1644:1648  _num */\n      dup5\n        /* \"for-loops.sol\":1644:1656  _num % _nums */\n      tag_23\n      swap2\n      swap1\n      tag_24\n      jump\t// in\n    tag_23:\n        /* \"for-loops.sol\":1644:1661  _num % _nums == 0 */\n      eq\n        /* \"for-loops.sol\":1640:1742  if (_num % _nums == 0) {... */\n      iszero\n      tag_25\n      jumpi\n        /* \"for-loops.sol\":1684:1688  true */\n      0x01\n        /* \"for-loops.sol\":1677:1688  return true */\n      swap1\n      pop\n      jump(tag_22)\n        /* \"for-loops.sol\":1640:1742  if (_num % _nums == 0) {... */\n    tag_25:\n        /* \"for-loops.sol\":1726:1731  false */\n      0x00\n        /* \"for-loops.sol\":1719:1731  return false */\n      swap1\n      pop\n        /* \"for-loops.sol\":1325:1748  function checkMultipleValidity(uint256 _num, uint256 _nums)... */\n    tag_22:\n      swap3\n      swap2\n      pop\n      pop\n      jump\t// out\n        /* \"for-loops.sol\":619:1129  function geMultiples(uint256 _number) public view returns (uint256) {... */\n    tag_15:\n        /* \"for-loops.sol\":678:685  uint256 */\n      0x00\n        /* \"for-loops.sol\":697:710  uint256 count */\n      dup1\n        /* \"for-loops.sol\":713:714  0 */\n      0x00\n        /* \"for-loops.sol\":697:714  uint256 count = 0 */\n      swap1\n      pop\n        /* \"for-loops.sol\":899:908  uint256 i */\n      0x00\n        /* \"for-loops.sol\":911:912  1 */\n      0x01\n        /* \"for-loops.sol\":899:912  uint256 i = 1 */\n      swap1\n      pop\n        /* \"for-loops.sol\":894:1101  for (uint256 i = 1; i < numbersList.length; i++) {... */\n    tag_28:\n        /* \"for-loops.sol\":918:929  numbersList */\n      0x00\n        /* \"for-loops.sol\":918:936  numbersList.length */\n      dup1\n      sload\n      swap1\n      pop\n        /* \"for-loops.sol\":914:915  i */\n      dup2\n        /* \"for-loops.sol\":914:936  i < numbersList.length */\n      lt\n        /* \"for-loops.sol\":894:1101  for (uint256 i = 1; i < numbersList.length; i++) {... */\n      iszero\n      tag_29\n      jumpi\n        /* \"for-loops.sol\":1003:1049  checkMultipleValidity(numbersList[i], _number) */\n      tag_31\n        /* \"for-loops.sol\":1025:1036  numbersList */\n      0x00\n        /* \"for-loops.sol\":1037:1038  i */\n      dup3\n        /* \"for-loops.sol\":1025:1039  numbersList[i] */\n      dup2\n      sload\n      dup2\n      lt\n      tag_32\n      jumpi\n      tag_33\n      tag_34\n      jump\t// in\n    tag_33:\n    tag_32:\n      swap1\n      0x00\n      mstore\n      keccak256(0x00, 0x20)\n      add\n      sload\n        /* \"for-loops.sol\":1041:1048  _number */\n      dup6\n        /* \"for-loops.sol\":1003:1024  checkMultipleValidity */\n      tag_9\n        /* \"for-loops.sol\":1003:1049  checkMultipleValidity(numbersList[i], _number) */\n      jump\t// in\n    tag_31:\n        /* \"for-loops.sol\":999:1091  if (checkMultipleValidity(numbersList[i], _number)) {... */\n      iszero\n      tag_36\n      jumpi\n        /* \"for-loops.sol\":1069:1076  count++ */\n      dup2\n      dup1\n      tag_37\n      swap1\n      tag_38\n      jump\t// in\n    tag_37:\n      swap3\n      pop\n      pop\n        /* \"for-loops.sol\":999:1091  if (checkMultipleValidity(numbersList[i], _number)) {... */\n    tag_36:\n        /* \"for-loops.sol\":938:941  i++ */\n      dup1\n      dup1\n      tag_39\n      swap1\n      tag_38\n      jump\t// in\n    tag_39:\n      swap2\n      pop\n      pop\n        /* \"for-loops.sol\":894:1101  for (uint256 i = 1; i < numbersList.length; i++) {... */\n      jump(tag_28)\n    tag_29:\n      pop\n        /* \"for-loops.sol\":1117:1122  count */\n      dup1\n        /* \"for-loops.sol\":1110:1122  return count */\n      swap2\n      pop\n      pop\n        /* \"for-loops.sol\":619:1129  function geMultiples(uint256 _number) public view returns (uint256) {... */\n      swap2\n      swap1\n      pop\n      jump\t// out\n        /* \"for-loops.sol\":392:454  uint256[] public numbersList = [1, 2, 3, 4, 5, 6, 7, 8, 9, 10] */\n    tag_20:\n      0x00\n      dup2\n      dup2\n      sload\n      dup2\n      lt\n      tag_40\n      jumpi\n      0x00\n      dup1\n      revert\n    tag_40:\n      swap1\n      0x00\n      mstore\n      keccak256(0x00, 0x20)\n      add\n      0x00\n      swap2\n      pop\n      swap1\n      pop\n      sload\n      dup2\n      jump\t// out\n        /* \"#utility.yul\":7:146   */\n    tag_43:\n        /* \"#utility.yul\":53:58   */\n      0x00\n        /* \"#utility.yul\":91:97   */\n      dup2\n        /* \"#utility.yul\":78:98   */\n      calldataload\n        /* \"#utility.yul\":69:98   */\n      swap1\n      pop\n        /* \"#utility.yul\":107:140   */\n      tag_45\n        /* \"#utility.yul\":134:139   */\n      dup2\n        /* \"#utility.yul\":107:140   */\n      tag_46\n      jump\t// in\n    tag_45:\n        /* \"#utility.yul\":7:146   */\n      swap3\n      swap2\n      pop\n      pop\n      jump\t// out\n        /* \"#utility.yul\":152:481   */\n    tag_14:\n        /* \"#utility.yul\":211:217   */\n      0x00\n        /* \"#utility.yul\":260:262   */\n      0x20\n        /* \"#utility.yul\":248:257   */\n      dup3\n        /* \"#utility.yul\":239:246   */\n      dup5\n        /* \"#utility.yul\":235:258   */\n      sub\n        /* \"#utility.yul\":231:263   */\n      slt\n        /* \"#utility.yul\":228:347   */\n      iszero\n      tag_48\n      jumpi\n        /* \"#utility.yul\":266:345   */\n      tag_49\n      tag_50\n      jump\t// in\n    tag_49:\n        /* \"#utility.yul\":228:347   */\n    tag_48:\n        /* \"#utility.yul\":386:387   */\n      0x00\n        /* \"#utility.yul\":411:464   */\n      tag_51\n        /* \"#utility.yul\":456:463   */\n      dup5\n        /* \"#utility.yul\":447:453   */\n      dup3\n        /* \"#utility.yul\":436:445   */\n      dup6\n        /* \"#utility.yul\":432:454   */\n      add\n        /* \"#utility.yul\":411:464   */\n      tag_43\n      jump\t// in\n    tag_51:\n        /* \"#utility.yul\":401:464   */\n      swap2\n      pop\n        /* \"#utility.yul\":357:474   */\n      pop\n        /* \"#utility.yul\":152:481   */\n      swap3\n      swap2\n      pop\n      pop\n      jump\t// out\n        /* \"#utility.yul\":487:961   */\n    tag_8:\n        /* \"#utility.yul\":555:561   */\n      0x00\n        /* \"#utility.yul\":563:569   */\n      dup1\n        /* \"#utility.yul\":612:614   */\n      0x40\n        /* \"#utility.yul\":600:609   */\n      dup4\n        /* \"#utility.yul\":591:598   */\n      dup6\n        /* \"#utility.yul\":587:610   */\n      sub\n        /* \"#utility.yul\":583:615   */\n      slt\n        /* \"#utility.yul\":580:699   */\n      iszero\n      tag_53\n      jumpi\n        /* \"#utility.yul\":618:697   */\n      tag_54\n      tag_50\n      jump\t// in\n    tag_54:\n        /* \"#utility.yul\":580:699   */\n    tag_53:\n        /* \"#utility.yul\":738:739   */\n      0x00\n        /* \"#utility.yul\":763:816   */\n      tag_55\n        /* \"#utility.yul\":808:815   */\n      dup6\n        /* \"#utility.yul\":799:805   */\n      dup3\n        /* \"#utility.yul\":788:797   */\n      dup7\n        /* \"#utility.yul\":784:806   */\n      add\n        /* \"#utility.yul\":763:816   */\n      tag_43\n      jump\t// in\n    tag_55:\n        /* \"#utility.yul\":753:816   */\n      swap3\n      pop\n        /* \"#utility.yul\":709:826   */\n      pop\n        /* \"#utility.yul\":865:867   */\n      0x20\n        /* \"#utility.yul\":891:944   */\n      tag_56\n        /* \"#utility.yul\":936:943   */\n      dup6\n        /* \"#utility.yul\":927:933   */\n      dup3\n        /* \"#utility.yul\":916:925   */\n      dup7\n        /* \"#utility.yul\":912:934   */\n      add\n        /* \"#utility.yul\":891:944   */\n      tag_43\n      jump\t// in\n    tag_56:\n        /* \"#utility.yul\":881:944   */\n      swap2\n      pop\n        /* \"#utility.yul\":836:954   */\n      pop\n        /* \"#utility.yul\":487:961   */\n      swap3\n      pop\n      swap3\n      swap1\n      pop\n      jump\t// out\n        /* \"#utility.yul\":967:1076   */\n    tag_57:\n        /* \"#utility.yul\":1048:1069   */\n      tag_59\n        /* \"#utility.yul\":1063:1068   */\n      dup2\n        /* \"#utility.yul\":1048:1069   */\n      tag_60\n      jump\t// in\n    tag_59:\n        /* \"#utility.yul\":1043:1046   */\n      dup3\n        /* \"#utility.yul\":1036:1070   */\n      mstore\n        /* \"#utility.yul\":967:1076   */\n      pop\n      pop\n      jump\t// out\n        /* \"#utility.yul\":1082:1200   */\n    tag_61:\n        /* \"#utility.yul\":1169:1193   */\n      tag_63\n        /* \"#utility.yul\":1187:1192   */\n      dup2\n        /* \"#utility.yul\":1169:1193   */\n      tag_64\n      jump\t// in\n    tag_63:\n        /* \"#utility.yul\":1164:1167   */\n      dup3\n        /* \"#utility.yul\":1157:1194   */\n      mstore\n        /* \"#utility.yul\":1082:1200   */\n      pop\n      pop\n      jump\t// out\n        /* \"#utility.yul\":1206:1416   */\n    tag_11:\n        /* \"#utility.yul\":1293:1297   */\n      0x00\n        /* \"#utility.yul\":1331:1333   */\n      0x20\n        /* \"#utility.yul\":1320:1329   */\n      dup3\n        /* \"#utility.yul\":1316:1334   */\n      add\n        /* \"#utility.yul\":1308:1334   */\n      swap1\n      pop\n        /* \"#utility.yul\":1344:1409   */\n      tag_66\n        /* \"#utility.yul\":1406:1407   */\n      0x00\n        /* \"#utility.yul\":1395:1404   */\n      dup4\n        /* \"#utility.yul\":1391:1408   */\n      add\n        /* \"#utility.yul\":1382:1388   */\n      dup5\n        /* \"#utility.yul\":1344:1409   */\n      tag_57\n      jump\t// in\n    tag_66:\n        /* \"#utility.yul\":1206:1416   */\n      swap3\n      swap2\n      pop\n      pop\n      jump\t// out\n        /* \"#utility.yul\":1422:1644   */\n    tag_17:\n        /* \"#utility.yul\":1515:1519   */\n      0x00\n        /* \"#utility.yul\":1553:1555   */\n      0x20\n        /* \"#utility.yul\":1542:1551   */\n      dup3\n        /* \"#utility.yul\":1538:1556   */\n      add\n        /* \"#utility.yul\":1530:1556   */\n      swap1\n      pop\n        /* \"#utility.yul\":1566:1637   */\n      tag_68\n        /* \"#utility.yul\":1634:1635   */\n      0x00\n        /* \"#utility.yul\":1623:1632   */\n      dup4\n        /* \"#utility.yul\":1619:1636   */\n      add\n        /* \"#utility.yul\":1610:1616   */\n      dup5\n        /* \"#utility.yul\":1566:1637   */\n      tag_61\n      jump\t// in\n    tag_68:\n        /* \"#utility.yul\":1422:1644   */\n      swap3\n      swap2\n      pop\n      pop\n      jump\t// out\n        /* \"#utility.yul\":1731:1821   */\n    tag_60:\n        /* \"#utility.yul\":1765:1772   */\n      0x00\n        /* \"#utility.yul\":1808:1813   */\n      dup2\n        /* \"#utility.yul\":1801:1814   */\n      iszero\n        /* \"#utility.yul\":1794:1815   */\n      iszero\n        /* \"#utility.yul\":1783:1815   */\n      swap1\n      pop\n        /* \"#utility.yul\":1731:1821   */\n      swap2\n      swap1\n      pop\n      jump\t// out\n        /* \"#utility.yul\":1827:1904   */\n    tag_64:\n        /* \"#utility.yul\":1864:1871   */\n      0x00\n        /* \"#utility.yul\":1893:1898   */\n      dup2\n        /* \"#utility.yul\":1882:1898   */\n      swap1\n      pop\n        /* \"#utility.yul\":1827:1904   */\n      swap2\n      swap1\n      pop\n      jump\t// out\n        /* \"#utility.yul\":1910:2143   */\n    tag_38:\n        /* \"#utility.yul\":1949:1952   */\n      0x00\n        /* \"#utility.yul\":1972:1996   */\n      tag_74\n        /* \"#utility.yul\":1990:1995   */\n      dup3\n        /* \"#utility.yul\":1972:1996   */\n      tag_64\n      jump\t// in\n    tag_74:\n        /* \"#utility.yul\":1963:1996   */\n      swap2\n      pop\n        /* \"#utility.yul\":2018:2084   */\n      0xffffffffffffffffffffffffffffffffffffffffffffffffffffffffffffffff\n        /* \"#utility.yul\":2011:2016   */\n      dup3\n        /* \"#utility.yul\":2008:2085   */\n      eq\n        /* \"#utility.yul\":2005:2108   */\n      iszero\n      tag_75\n      jumpi\n        /* \"#utility.yul\":2088:2106   */\n      tag_76\n      tag_77\n      jump\t// in\n    tag_76:\n        /* \"#utility.yul\":2005:2108   */\n    tag_75:\n        /* \"#utility.yul\":2135:2136   */\n      0x01\n        /* \"#utility.yul\":2128:2133   */\n      dup3\n        /* \"#utility.yul\":2124:2137   */\n      add\n        /* \"#utility.yul\":2117:2137   */\n      swap1\n      pop\n        /* \"#utility.yul\":1910:2143   */\n      swap2\n      swap1\n      pop\n      jump\t// out\n        /* \"#utility.yul\":2149:2325   */\n    tag_24:\n        /* \"#utility.yul\":2181:2182   */\n      0x00\n        /* \"#utility.yul\":2198:2218   */\n      tag_79\n        /* \"#utility.yul\":2216:2217   */\n      dup3\n        /* \"#utility.yul\":2198:2218   */\n      tag_64\n      jump\t// in\n    tag_79:\n        /* \"#utility.yul\":2193:2218   */\n      swap2\n      pop\n        /* \"#utility.yul\":2232:2252   */\n      tag_80\n        /* \"#utility.yul\":2250:2251   */\n      dup4\n        /* \"#utility.yul\":2232:2252   */\n      tag_64\n      jump\t// in\n    tag_80:\n        /* \"#utility.yul\":2227:2252   */\n      swap3\n      pop\n        /* \"#utility.yul\":2271:2272   */\n      dup3\n        /* \"#utility.yul\":2261:2296   */\n      tag_81\n      jumpi\n        /* \"#utility.yul\":2276:2294   */\n      tag_82\n      tag_83\n      jump\t// in\n    tag_82:\n        /* \"#utility.yul\":2261:2296   */\n    tag_81:\n        /* \"#utility.yul\":2317:2318   */\n      dup3\n        /* \"#utility.yul\":2314:2315   */\n      dup3\n        /* \"#utility.yul\":2310:2319   */\n      mod\n        /* \"#utility.yul\":2305:2319   */\n      swap1\n      pop\n        /* \"#utility.yul\":2149:2325   */\n      swap3\n      swap2\n      pop\n      pop\n      jump\t// out\n        /* \"#utility.yul\":2331:2511   */\n    tag_77:\n        /* \"#utility.yul\":2379:2456   */\n      0x4e487b7100000000000000000000000000000000000000000000000000000000\n        /* \"#utility.yul\":2376:2377   */\n      0x00\n        /* \"#utility.yul\":2369:2457   */\n      mstore\n        /* \"#utility.yul\":2476:2480   */\n      0x11\n        /* \"#utility.yul\":2473:2474   */\n      0x04\n        /* \"#utility.yul\":2466:2481   */\n      mstore\n        /* \"#utility.yul\":2500:2504   */\n      0x24\n        /* \"#utility.yul\":2497:2498   */\n      0x00\n        /* \"#utility.yul\":2490:2505   */\n      revert\n        /* \"#utility.yul\":2517:2697   */\n    tag_83:\n        /* \"#utility.yul\":2565:2642   */\n      0x4e487b7100000000000000000000000000000000000000000000000000000000\n        /* \"#utility.yul\":2562:2563   */\n      0x00\n        /* \"#utility.yul\":2555:2643   */\n      mstore\n        /* \"#utility.yul\":2662:2666   */\n      0x12\n        /* \"#utility.yul\":2659:2660   */\n      0x04\n        /* \"#utility.yul\":2652:2667   */\n      mstore\n        /* \"#utility.yul\":2686:2690   */\n      0x24\n        /* \"#utility.yul\":2683:2684   */\n      0x00\n        /* \"#utility.yul\":2676:2691   */\n      revert\n        /* \"#utility.yul\":2703:2883   */\n    tag_34:\n        /* \"#utility.yul\":2751:2828   */\n      0x4e487b7100000000000000000000000000000000000000000000000000000000\n        /* \"#utility.yul\":2748:2749   */\n      0x00\n        /* \"#utility.yul\":2741:2829   */\n      mstore\n        /* \"#utility.yul\":2848:2852   */\n      0x32\n        /* \"#utility.yul\":2845:2846   */\n      0x04\n        /* \"#utility.yul\":2838:2853   */\n      mstore\n        /* \"#utility.yul\":2872:2876   */\n      0x24\n        /* \"#utility.yul\":2869:2870   */\n      0x00\n        /* \"#utility.yul\":2862:2877   */\n      revert\n        /* \"#utility.yul\":3012:3129   */\n    tag_50:\n        /* \"#utility.yul\":3121:3122   */\n      0x00\n        /* \"#utility.yul\":3118:3119   */\n      dup1\n        /* \"#utility.yul\":3111:3123   */\n      revert\n        /* \"#utility.yul\":3135:3257   */\n    tag_46:\n        /* \"#utility.yul\":3208:3232   */\n      tag_91\n        /* \"#utility.yul\":3226:3231   */\n      dup2\n        /* \"#utility.yul\":3208:3232   */\n      tag_64\n      jump\t// in\n    tag_91:\n        /* \"#utility.yul\":3201:3206   */\n      dup2\n        /* \"#utility.yul\":3198:3233   */\n      eq\n        /* \"#utility.yul\":3188:3251   */\n      tag_92\n      jumpi\n        /* \"#utility.yul\":3247:3248   */\n      0x00\n        /* \"#utility.yul\":3244:3245   */\n      dup1\n        /* \"#utility.yul\":3237:3249   */\n      revert\n        /* \"#utility.yul\":3188:3251   */\n    tag_92:\n        /* \"#utility.yul\":3135:3257   */\n      pop\n      jump\t// out\n\n    auxdata: 0xa26469706673582212202be1fcfaac07c8d2053b0024d8a53e532766474e4ac9f7511cfc1ab3357812e364736f6c63430008070033\n}\n",
				"bytecode": {
					"linkReferences": {},
					"object": "6080604052604051806101400160405280600160ff168152602001600260ff168152602001600360ff168152602001600460ff168152602001600560ff168152602001600660ff168152602001600760ff168152602001600860ff168152602001600960ff168152602001600a60ff16815250600090600a610082929190610095565b5034801561008f57600080fd5b50610104565b8280548282559060005260206000209081019282156100d6579160200282015b828111156100d5578251829060ff169055916020019190600101906100b5565b5b5090506100e391906100e7565b5090565b5b808211156101005760008160009055506001016100e8565b5090565b6103dc806101136000396000f3fe608060405234801561001057600080fd5b50600436106100415760003560e01c806316985d151461004657806348f6bcfe1461007657806382343a1e146100a6575b600080fd5b610060600480360381019061005b91906101d9565b6100d6565b60405161006d9190610237565b60405180910390f35b610090600480360381019061008b91906101ac565b6100ff565b60405161009d9190610252565b60405180910390f35b6100c060048036038101906100bb91906101ac565b610173565b6040516100cd9190610252565b60405180910390f35b60008082846100e591906102cc565b14156100f457600190506100f9565b600090505b92915050565b600080600090506000600190505b60008054905081101561016957610142600082815481106101315761013061035b565b5b9060005260206000200154856100d6565b1561015657818061015290610283565b9250505b808061016190610283565b91505061010d565b5080915050919050565b6000818154811061018357600080fd5b906000526020600020016000915090505481565b6000813590506101a68161038f565b92915050565b6000602082840312156101c2576101c161038a565b5b60006101d084828501610197565b91505092915050565b600080604083850312156101f0576101ef61038a565b5b60006101fe85828601610197565b925050602061020f85828601610197565b9150509250929050565b6102228161026d565b82525050565b61023181610279565b82525050565b600060208201905061024c6000830184610219565b92915050565b60006020820190506102676000830184610228565b92915050565b60008115159050919050565b6000819050919050565b600061028e82610279565b91507fffffffffffffffffffffffffffffffffffffffffffffffffffffffffffffffff8214156102c1576102c06102fd565b5b600182019050919050565b60006102d782610279565b91506102e283610279565b9250826102f2576102f161032c565b5b828206905092915050565b7f4e487b7100000000000000000000000000000000000000000000000000000000600052601160045260246000fd5b7f4e487b7100000000000000000000000000000000000000000000000000000000600052601260045260246000fd5b7f4e487b7100000000000000000000000000000000000000000000000000000000600052603260045260246000fd5b600080fd5b61039881610279565b81146103a357600080fd5b5056fea26469706673582212202be1fcfaac07c8d2053b0024d8a53e532766474e4ac9f7511cfc1ab3357812e364736f6c63430008070033",
					"opcodes": "PUSH1 0x80 PUSH1 0x40 MSTORE PUSH1 0x40 MLOAD DUP1 PUSH2 0x140 ADD PUSH1 0x40 MSTORE DUP1 PUSH1 0x1 PUSH1 0xFF AND DUP2 MSTORE PUSH1 0x20 ADD PUSH1 0x2 PUSH1 0xFF AND DUP2 MSTORE PUSH1 0x20 ADD PUSH1 0x3 PUSH1 0xFF AND DUP2 MSTORE PUSH1 0x20 ADD PUSH1 0x4 PUSH1 0xFF AND DUP2 MSTORE PUSH1 0x20 ADD PUSH1 0x5 PUSH1 0xFF AND DUP2 MSTORE PUSH1 0x20 ADD PUSH1 0x6 PUSH1 0xFF AND DUP2 MSTORE PUSH1 0x20 ADD PUSH1 0x7 PUSH1 0xFF AND DUP2 MSTORE PUSH1 0x20 ADD PUSH1 0x8 PUSH1 0xFF AND DUP2 MSTORE PUSH1 0x20 ADD PUSH1 0x9 PUSH1 0xFF AND DUP2 MSTORE PUSH1 0x20 ADD PUSH1 0xA PUSH1 0xFF AND DUP2 MSTORE POP PUSH1 0x0 SWAP1 PUSH1 0xA PUSH2 0x82 SWAP3 SWAP2 SWAP1 PUSH2 0x95 JUMP JUMPDEST POP CALLVALUE DUP1 ISZERO PUSH2 0x8F JUMPI PUSH1 0x0 DUP1 REVERT JUMPDEST POP PUSH2 0x104 JUMP JUMPDEST DUP3 DUP1 SLOAD DUP3 DUP3 SSTORE SWAP1 PUSH1 0x0 MSTORE PUSH1 0x20 PUSH1 0x0 KECCAK256 SWAP1 DUP2 ADD SWAP3 DUP3 ISZERO PUSH2 0xD6 JUMPI SWAP2 PUSH1 0x20 MUL DUP3 ADD JUMPDEST DUP3 DUP2 GT ISZERO PUSH2 0xD5 JUMPI DUP3 MLOAD DUP3 SWAP1 PUSH1 0xFF AND SWAP1 SSTORE SWAP2 PUSH1 0x20 ADD SWAP2 SWAP1 PUSH1 0x1 ADD SWAP1 PUSH2 0xB5 JUMP JUMPDEST JUMPDEST POP SWAP1 POP PUSH2 0xE3 SWAP2 SWAP1 PUSH2 0xE7 JUMP JUMPDEST POP SWAP1 JUMP JUMPDEST JUMPDEST DUP1 DUP3 GT ISZERO PUSH2 0x100 JUMPI PUSH1 0x0 DUP2 PUSH1 0x0 SWAP1 SSTORE POP PUSH1 0x1 ADD PUSH2 0xE8 JUMP JUMPDEST POP SWAP1 JUMP JUMPDEST PUSH2 0x3DC DUP1 PUSH2 0x113 PUSH1 0x0 CODECOPY PUSH1 0x0 RETURN INVALID PUSH1 0x80 PUSH1 0x40 MSTORE CALLVALUE DUP1 ISZERO PUSH2 0x10 JUMPI PUSH1 0x0 DUP1 REVERT JUMPDEST POP PUSH1 0x4 CALLDATASIZE LT PUSH2 0x41 JUMPI PUSH1 0x0 CALLDATALOAD PUSH1 0xE0 SHR DUP1 PUSH4 0x16985D15 EQ PUSH2 0x46 JUMPI DUP1 PUSH4 0x48F6BCFE EQ PUSH2 0x76 JUMPI DUP1 PUSH4 0x82343A1E EQ PUSH2 0xA6 JUMPI JUMPDEST PUSH1 0x0 DUP1 REVERT JUMPDEST PUSH2 0x60 PUSH1 0x4 DUP1 CALLDATASIZE SUB DUP2 ADD SWAP1 PUSH2 0x5B SWAP2 SWAP1 PUSH2 0x1D9 JUMP JUMPDEST PUSH2 0xD6 JUMP JUMPDEST PUSH1 0x40 MLOAD PUSH2 0x6D SWAP2 SWAP1 PUSH2 0x237 JUMP JUMPDEST PUSH1 0x40 MLOAD DUP1 SWAP2 SUB SWAP1 RETURN JUMPDEST PUSH2 0x90 PUSH1 0x4 DUP1 CALLDATASIZE SUB DUP2 ADD SWAP1 PUSH2 0x8B SWAP2 SWAP1 PUSH2 0x1AC JUMP JUMPDEST PUSH2 0xFF JUMP JUMPDEST PUSH1 0x40 MLOAD PUSH2 0x9D SWAP2 SWAP1 PUSH2 0x252 JUMP JUMPDEST PUSH1 0x40 MLOAD DUP1 SWAP2 SUB SWAP1 RETURN JUMPDEST PUSH2 0xC0 PUSH1 0x4 DUP1 CALLDATASIZE SUB DUP2 ADD SWAP1 PUSH2 0xBB SWAP2 SWAP1 PUSH2 0x1AC JUMP JUMPDEST PUSH2 0x173 JUMP JUMPDEST PUSH1 0x40 MLOAD PUSH2 0xCD SWAP2 SWAP1 PUSH2 0x252 JUMP JUMPDEST PUSH1 0x40 MLOAD DUP1 SWAP2 SUB SWAP1 RETURN JUMPDEST PUSH1 0x0 DUP1 DUP3 DUP5 PUSH2 0xE5 SWAP2 SWAP1 PUSH2 0x2CC JUMP JUMPDEST EQ ISZERO PUSH2 0xF4 JUMPI PUSH1 0x1 SWAP1 POP PUSH2 0xF9 JUMP JUMPDEST PUSH1 0x0 SWAP1 POP JUMPDEST SWAP3 SWAP2 POP POP JUMP JUMPDEST PUSH1 0x0 DUP1 PUSH1 0x0 SWAP1 POP PUSH1 0x0 PUSH1 0x1 SWAP1 POP JUMPDEST PUSH1 0x0 DUP1 SLOAD SWAP1 POP DUP2 LT ISZERO PUSH2 0x169 JUMPI PUSH2 0x142 PUSH1 0x0 DUP3 DUP2 SLOAD DUP2 LT PUSH2 0x131 JUMPI PUSH2 0x130 PUSH2 0x35B JUMP JUMPDEST JUMPDEST SWAP1 PUSH1 0x0 MSTORE PUSH1 0x20 PUSH1 0x0 KECCAK256 ADD SLOAD DUP6 PUSH2 0xD6 JUMP JUMPDEST ISZERO PUSH2 0x156 JUMPI DUP2 DUP1 PUSH2 0x152 SWAP1 PUSH2 0x283 JUMP JUMPDEST SWAP3 POP POP JUMPDEST DUP1 DUP1 PUSH2 0x161 SWAP1 PUSH2 0x283 JUMP JUMPDEST SWAP2 POP POP PUSH2 0x10D JUMP JUMPDEST POP DUP1 SWAP2 POP POP SWAP2 SWAP1 POP JUMP JUMPDEST PUSH1 0x0 DUP2 DUP2 SLOAD DUP2 LT PUSH2 0x183 JUMPI PUSH1 0x0 DUP1 REVERT JUMPDEST SWAP1 PUSH1 0x0 MSTORE PUSH1 0x20 PUSH1 0x0 KECCAK256 ADD PUSH1 0x0 SWAP2 POP SWAP1 POP SLOAD DUP2 JUMP JUMPDEST PUSH1 0x0 DUP2 CALLDATALOAD SWAP1 POP PUSH2 0x1A6 DUP2 PUSH2 0x38F JUMP JUMPDEST SWAP3 SWAP2 POP POP JUMP JUMPDEST PUSH1 0x0 PUSH1 0x20 DUP3 DUP5 SUB SLT ISZERO PUSH2 0x1C2 JUMPI PUSH2 0x1C1 PUSH2 0x38A JUMP JUMPDEST JUMPDEST PUSH1 0x0 PUSH2 0x1D0 DUP5 DUP3 DUP6 ADD PUSH2 0x197 JUMP JUMPDEST SWAP2 POP POP SWAP3 SWAP2 POP POP JUMP JUMPDEST PUSH1 0x0 DUP1 PUSH1 0x40 DUP4 DUP6 SUB SLT ISZERO PUSH2 0x1F0 JUMPI PUSH2 0x1EF PUSH2 0x38A JUMP JUMPDEST JUMPDEST PUSH1 0x0 PUSH2 0x1FE DUP6 DUP3 DUP7 ADD PUSH2 0x197 JUMP JUMPDEST SWAP3 POP POP PUSH1 0x20 PUSH2 0x20F DUP6 DUP3 DUP7 ADD PUSH2 0x197 JUMP JUMPDEST SWAP2 POP POP SWAP3 POP SWAP3 SWAP1 POP JUMP JUMPDEST PUSH2 0x222 DUP2 PUSH2 0x26D JUMP JUMPDEST DUP3 MSTORE POP POP JUMP JUMPDEST PUSH2 0x231 DUP2 PUSH2 0x279 JUMP JUMPDEST DUP3 MSTORE POP POP JUMP JUMPDEST PUSH1 0x0 PUSH1 0x20 DUP3 ADD SWAP1 POP PUSH2 0x24C PUSH1 0x0 DUP4 ADD DUP5 PUSH2 0x219 JUMP JUMPDEST SWAP3 SWAP2 POP POP JUMP JUMPDEST PUSH1 0x0 PUSH1 0x20 DUP3 ADD SWAP1 POP PUSH2 0x267 PUSH1 0x0 DUP4 ADD DUP5 PUSH2 0x228 JUMP JUMPDEST SWAP3 SWAP2 POP POP JUMP JUMPDEST PUSH1 0x0 DUP2 ISZERO ISZERO SWAP1 POP SWAP2 SWAP1 POP JUMP JUMPDEST PUSH1 0x0 DUP2 SWAP1 POP SWAP2 SWAP1 POP JUMP JUMPDEST PUSH1 0x0 PUSH2 0x28E DUP3 PUSH2 0x279 JUMP JUMPDEST SWAP2 POP PUSH32 0xFFFFFFFFFFFFFFFFFFFFFFFFFFFFFFFFFFFFFFFFFFFFFFFFFFFFFFFFFFFFFFFF DUP3 EQ ISZERO PUSH2 0x2C1 JUMPI PUSH2 0x2C0 PUSH2 0x2FD JUMP JUMPDEST JUMPDEST PUSH1 0x1 DUP3 ADD SWAP1 POP SWAP2 SWAP1 POP JUMP JUMPDEST PUSH1 0x0 PUSH2 0x2D7 DUP3 PUSH2 0x279 JUMP JUMPDEST SWAP2 POP PUSH2 0x2E2 DUP4 PUSH2 0x279 JUMP JUMPDEST SWAP3 POP DUP3 PUSH2 0x2F2 JUMPI PUSH2 0x2F1 PUSH2 0x32C JUMP JUMPDEST JUMPDEST DUP3 DUP3 MOD SWAP1 POP SWAP3 SWAP2 POP POP JUMP JUMPDEST PUSH32 0x4E487B7100000000000000000000000000000000000000000000000000000000 PUSH1 0x0 MSTORE PUSH1 0x11 PUSH1 0x4 MSTORE PUSH1 0x24 PUSH1 0x0 REVERT JUMPDEST PUSH32 0x4E487B7100000000000000000000000000000000000000000000000000000000 PUSH1 0x0 MSTORE PUSH1 0x12 PUSH1 0x4 MSTORE PUSH1 0x24 PUSH1 0x0 REVERT JUMPDEST PUSH32 0x4E487B7100000000000000000000000000000000000000000000000000000000 PUSH1 0x0 MSTORE PUSH1 0x32 PUSH1 0x4 MSTORE PUSH1 0x24 PUSH1 0x0 REVERT JUMPDEST PUSH1 0x0 DUP1 REVERT JUMPDEST PUSH2 0x398 DUP2 PUSH2 0x279 JUMP JUMPDEST DUP2 EQ PUSH2 0x3A3 JUMPI PUSH1 0x0 DUP1 REVERT JUMPDEST POP JUMP INVALID LOG2 PUSH5 0x6970667358 0x22 SLT KECCAK256 0x2B 0xE1 0xFC STATICCALL 0xAC SMOD 0xC8 0xD2 SDIV EXTCODESIZE STOP 0x24 0xD8 0xA5 RETURNDATACOPY MSTORE8 0x27 PUSH7 0x474E4AC9F7511C 0xFC BYTE 0xB3 CALLDATALOAD PUSH25 0x12E364736F6C63430008070033000000000000000000000000 "
				},
				"gasEstimates": {
					"creation": {
						"codeDepositCost": "197600",
						"executionCost": "infinite",
						"totalCost": "infinite"
					},
					"external": {
						"checkMultipleValidity(uint256,uint256)": "infinite",
						"geMultiples(uint256)": "infinite",
						"numbersList(uint256)": "infinite"
					}
				},
				"methodIdentifiers": {
					"checkMultipleValidity(uint256,uint256)": "16985d15",
					"geMultiples(uint256)": "48f6bcfe",
					"numbersList(uint256)": "82343a1e"
				}
			},
			"storageLayout": {
				"storage": [
					{
						"astId": 15,
						"contract": "for-loops.sol:loopContract",
						"label": "numbersList",
						"offset": 0,
						"slot": "0",
						"type": "t_array(t_uint256)dyn_storage"
					}
				],
				"types": {
					"t_array(t_uint256)dyn_storage": {
						"base": "t_uint256",
						"encoding": "dynamic_array",
						"label": "uint256[]",
						"numberOfBytes": "32"
					},
					"t_uint256": {
						"encoding": "inplace",
						"label": "uint256",
						"numberOfBytes": "32"
					}
				}
			},
			"userdoc": {
				"kind": "user",
				"methods": {},
				"version": 1
			}
		}
	}
}